{
  "_format": "hh-sol-artifact-1",
  "contractName": "DitoUSD",
  "sourceName": "contracts/DitoUSD.sol",
  "abi": [
    {
      "inputs": [],
      "stateMutability": "nonpayable",
      "type": "constructor"
    },
    {
      "inputs": [],
      "name": "DtotalSupply",
      "outputs": [
        {
          "internalType": "uint256",
          "name": "",
          "type": "uint256"
        }
      ],
      "stateMutability": "view",
      "type": "function"
    },
    {
      "inputs": [
        {
          "internalType": "address",
          "name": "_addr",
          "type": "address"
        }
      ],
      "name": "balanceOf",
      "outputs": [
        {
          "internalType": "uint256",
          "name": "",
          "type": "uint256"
        }
      ],
      "stateMutability": "view",
      "type": "function"
    },
    {
      "inputs": [],
      "name": "decimals",
      "outputs": [
        {
          "internalType": "uint8",
          "name": "",
          "type": "uint8"
        }
      ],
      "stateMutability": "view",
      "type": "function"
    },
    {
      "inputs": [
        {
          "internalType": "address",
          "name": "_addr",
          "type": "address"
        },
        {
          "internalType": "uint256",
          "name": "_amount",
          "type": "uint256"
        }
      ],
      "name": "mintDUSD",
      "outputs": [],
      "stateMutability": "nonpayable",
      "type": "function"
    },
    {
      "inputs": [],
      "name": "name",
      "outputs": [
        {
          "internalType": "string",
          "name": "",
          "type": "string"
        }
      ],
      "stateMutability": "view",
      "type": "function"
    },
    {
      "inputs": [
        {
          "internalType": "address",
          "name": "_to",
          "type": "address"
        },
        {
          "internalType": "uint256",
          "name": "_amount",
          "type": "uint256"
        }
      ],
      "name": "reward",
      "outputs": [],
      "stateMutability": "nonpayable",
      "type": "function"
    },
    {
      "inputs": [
        {
          "internalType": "address",
          "name": "_addr",
          "type": "address"
        }
      ],
      "name": "setStakingContract",
      "outputs": [],
      "stateMutability": "nonpayable",
      "type": "function"
    },
    {
      "inputs": [],
      "name": "symbol",
      "outputs": [
        {
          "internalType": "string",
          "name": "",
          "type": "string"
        }
      ],
      "stateMutability": "view",
      "type": "function"
    },
    {
      "inputs": [],
      "name": "totalSupply",
      "outputs": [
        {
          "internalType": "uint256",
          "name": "",
          "type": "uint256"
        }
      ],
      "stateMutability": "view",
      "type": "function"
    },
    {
      "inputs": [
        {
          "internalType": "address",
          "name": "_addr",
          "type": "address"
        },
        {
          "internalType": "uint256",
          "name": "_amount",
          "type": "uint256"
        }
      ],
      "name": "transfer",
      "outputs": [
        {
          "internalType": "bool",
          "name": "",
          "type": "bool"
        }
      ],
      "stateMutability": "nonpayable",
      "type": "function"
    }
  ],
  "bytecode": "0x60806040526040518060400160405280600781526020017f4469746f55534400000000000000000000000000000000000000000000000000815250600090805190602001906200005192919062000168565b506040518060400160405280600481526020017f4455534400000000000000000000000000000000000000000000000000000000815250600190805190602001906200009f92919062000168565b506012600260006101000a81548160ff021916908360ff160217905550348015620000c957600080fd5b5069d3c21bcecceda1000000600381905550600354600560003373ffffffffffffffffffffffffffffffffffffffff1673ffffffffffffffffffffffffffffffffffffffff1681526020019081526020016000208190555033600260016101000a81548173ffffffffffffffffffffffffffffffffffffffff021916908373ffffffffffffffffffffffffffffffffffffffff1602179055506200027d565b828054620001769062000218565b90600052602060002090601f0160209004810192826200019a5760008555620001e6565b82601f10620001b557805160ff1916838001178555620001e6565b82800160010185558215620001e6579182015b82811115620001e5578251825591602001919060010190620001c8565b5b509050620001f59190620001f9565b5090565b5b8082111562000214576000816000905550600101620001fa565b5090565b600060028204905060018216806200023157607f821691505b602082108114156200024857620002476200024e565b5b50919050565b7f4e487b7100000000000000000000000000000000000000000000000000000000600052602260045260246000fd5b610d9b806200028d6000396000f3fe608060405234801561001057600080fd5b506004361061009e5760003560e01c806382811a2c1161006657806382811a2c146101495780639186886a1461016557806395d89b41146101835780639dd373b9146101a1578063a9059cbb146101bd5761009e565b806306fdde03146100a357806318160ddd146100c157806321670f22146100df578063313ce567146100fb57806370a0823114610119575b600080fd5b6100ab6101ed565b6040516100b89190610a36565b60405180910390f35b6100c961027f565b6040516100d69190610ad8565b60405180910390f35b6100f960048036038101906100f4919061082d565b610289565b005b61010361038c565b6040516101109190610af3565b60405180910390f35b610133600480360381019061012e9190610804565b6103a3565b6040516101409190610ad8565b60405180910390f35b610163600480360381019061015e919061082d565b6103ec565b005b61016d610508565b60405161017a9190610ad8565b60405180910390f35b61018b61050e565b6040516101989190610a36565b60405180910390f35b6101bb60048036038101906101b69190610804565b6105a0565b005b6101d760048036038101906101d2919061082d565b610674565b6040516101e49190610a1b565b60405180910390f35b6060600080546101fc90610c96565b80601f016020809104026020016040519081016040528092919081815260200182805461022890610c96565b80156102755780601f1061024a57610100808354040283529160200191610275565b820191906000526020600020905b81548152906001019060200180831161025857829003601f168201915b5050505050905090565b6000600354905090565b600460009054906101000a900473ffffffffffffffffffffffffffffffffffffffff1673ffffffffffffffffffffffffffffffffffffffff163373ffffffffffffffffffffffffffffffffffffffff1614610319576040517f08c379a000000000000000000000000000000000000000000000000000000000815260040161031090610ab8565b60405180910390fd5b6000670de0b6b3a76400008261032f9190610b80565b905080600560008573ffffffffffffffffffffffffffffffffffffffff1673ffffffffffffffffffffffffffffffffffffffff16815260200190815260200160002060008282546103809190610b2a565b92505081905550505050565b6000600260009054906101000a900460ff16905090565b6000600560008373ffffffffffffffffffffffffffffffffffffffff1673ffffffffffffffffffffffffffffffffffffffff168152602001908152602001600020549050919050565b6000670de0b6b3a7640000826104029190610b80565b9050600260019054906101000a900473ffffffffffffffffffffffffffffffffffffffff1673ffffffffffffffffffffffffffffffffffffffff163373ffffffffffffffffffffffffffffffffffffffff1614610494576040517f08c379a000000000000000000000000000000000000000000000000000000000815260040161048b90610a58565b60405180910390fd5b80600360008282546104a69190610b2a565b9250508190555080600560008573ffffffffffffffffffffffffffffffffffffffff1673ffffffffffffffffffffffffffffffffffffffff16815260200190815260200160002060008282546104fc9190610b2a565b92505081905550505050565b60035481565b60606001805461051d90610c96565b80601f016020809104026020016040519081016040528092919081815260200182805461054990610c96565b80156105965780601f1061056b57610100808354040283529160200191610596565b820191906000526020600020905b81548152906001019060200180831161057957829003601f168201915b5050505050905090565b600260019054906101000a900473ffffffffffffffffffffffffffffffffffffffff1673ffffffffffffffffffffffffffffffffffffffff163373ffffffffffffffffffffffffffffffffffffffff1614610630576040517f08c379a000000000000000000000000000000000000000000000000000000000815260040161062790610a78565b60405180910390fd5b80600460006101000a81548173ffffffffffffffffffffffffffffffffffffffff021916908373ffffffffffffffffffffffffffffffffffffffff16021790555050565b6000670de0b6b3a76400008261068a9190610b80565b600560003373ffffffffffffffffffffffffffffffffffffffff1673ffffffffffffffffffffffffffffffffffffffff16815260200190815260200160002054101561070b576040517f08c379a000000000000000000000000000000000000000000000000000000000815260040161070290610a98565b60405180910390fd5b6000670de0b6b3a7640000836107219190610b80565b905080600560003373ffffffffffffffffffffffffffffffffffffffff1673ffffffffffffffffffffffffffffffffffffffff16815260200190815260200160002060008282546107729190610bda565b9250508190555080600560008673ffffffffffffffffffffffffffffffffffffffff1673ffffffffffffffffffffffffffffffffffffffff16815260200190815260200160002060008282546107c89190610b2a565b92505081905550600191505092915050565b6000813590506107e981610d37565b92915050565b6000813590506107fe81610d4e565b92915050565b60006020828403121561081657600080fd5b6000610824848285016107da565b91505092915050565b6000806040838503121561084057600080fd5b600061084e858286016107da565b925050602061085f858286016107ef565b9150509250929050565b61087281610c20565b82525050565b600061088382610b0e565b61088d8185610b19565b935061089d818560208601610c63565b6108a681610d26565b840191505092915050565b60006108be602283610b19565b91507f4e6f205065726d697373696f6e20746f2075736520746869732066756e63746960008301527f6f6e0000000000000000000000000000000000000000000000000000000000006020830152604082019050919050565b6000610924602483610b19565b91507f4f6e6c79206f776e65722063616e206578656375746520746869732066756e6360008301527f74696f6e000000000000000000000000000000000000000000000000000000006020830152604082019050919050565b600061098a601483610b19565b91507f496e73756666696369656e742042616c616e63650000000000000000000000006000830152602082019050919050565b60006109ca601a83610b19565b91507f596f752063616e742063616c6c20746869732066756e74696f6e0000000000006000830152602082019050919050565b610a0681610c4c565b82525050565b610a1581610c56565b82525050565b6000602082019050610a306000830184610869565b92915050565b60006020820190508181036000830152610a508184610878565b905092915050565b60006020820190508181036000830152610a71816108b1565b9050919050565b60006020820190508181036000830152610a9181610917565b9050919050565b60006020820190508181036000830152610ab18161097d565b9050919050565b60006020820190508181036000830152610ad1816109bd565b9050919050565b6000602082019050610aed60008301846109fd565b92915050565b6000602082019050610b086000830184610a0c565b92915050565b600081519050919050565b600082825260208201905092915050565b6000610b3582610c4c565b9150610b4083610c4c565b9250827fffffffffffffffffffffffffffffffffffffffffffffffffffffffffffffffff03821115610b7557610b74610cc8565b5b828201905092915050565b6000610b8b82610c4c565b9150610b9683610c4c565b9250817fffffffffffffffffffffffffffffffffffffffffffffffffffffffffffffffff0483118215151615610bcf57610bce610cc8565b5b828202905092915050565b6000610be582610c4c565b9150610bf083610c4c565b925082821015610c0357610c02610cc8565b5b828203905092915050565b6000610c1982610c2c565b9050919050565b60008115159050919050565b600073ffffffffffffffffffffffffffffffffffffffff82169050919050565b6000819050919050565b600060ff82169050919050565b60005b83811015610c81578082015181840152602081019050610c66565b83811115610c90576000848401525b50505050565b60006002820490506001821680610cae57607f821691505b60208210811415610cc257610cc1610cf7565b5b50919050565b7f4e487b7100000000000000000000000000000000000000000000000000000000600052601160045260246000fd5b7f4e487b7100000000000000000000000000000000000000000000000000000000600052602260045260246000fd5b6000601f19601f8301169050919050565b610d4081610c0e565b8114610d4b57600080fd5b50565b610d5781610c4c565b8114610d6257600080fd5b5056fea2646970667358221220212edafb673d96810653ee19f2aa7f12aaab2ecd74ae28a1caed68ead68601af64736f6c63430008000033",
  "linkReferences": {},
  "deployedLinkReferences": {}
}