{
  "_format": "hh-sol-artifact-1",
  "contractName": "DitoUSD",
  "sourceName": "contracts/DitoUSD.sol",
  "abi": [
    {
      "inputs": [],
      "stateMutability": "nonpayable",
      "type": "constructor"
    },
    {
      "inputs": [
        {
          "internalType": "address",
          "name": "_addr",
          "type": "address"
        }
      ],
      "name": "DbalanceOf",
      "outputs": [
        {
          "internalType": "uint256",
          "name": "",
          "type": "uint256"
        }
      ],
      "stateMutability": "view",
      "type": "function"
    },
    {
      "inputs": [],
      "name": "DtotalSupply",
      "outputs": [
        {
          "internalType": "uint256",
          "name": "",
          "type": "uint256"
        }
      ],
      "stateMutability": "view",
      "type": "function"
    },
    {
      "inputs": [
        {
          "internalType": "address",
          "name": "_addr",
          "type": "address"
        },
        {
          "internalType": "uint256",
          "name": "_amount",
          "type": "uint256"
        }
      ],
      "name": "Dtransfer",
      "outputs": [
        {
          "internalType": "bool",
          "name": "",
          "type": "bool"
        }
      ],
      "stateMutability": "nonpayable",
      "type": "function"
    },
    {
      "inputs": [],
      "name": "Name",
      "outputs": [
        {
          "internalType": "string",
          "name": "",
          "type": "string"
        }
      ],
      "stateMutability": "view",
      "type": "function"
    },
    {
      "inputs": [],
      "name": "Symbol",
      "outputs": [
        {
          "internalType": "string",
          "name": "",
          "type": "string"
        }
      ],
      "stateMutability": "view",
      "type": "function"
    },
    {
      "inputs": [
        {
          "internalType": "address",
          "name": "_addr",
          "type": "address"
        },
        {
          "internalType": "uint256",
          "name": "_amount",
          "type": "uint256"
        }
      ],
      "name": "mintDUSD",
      "outputs": [],
      "stateMutability": "nonpayable",
      "type": "function"
    }
  ],
  "bytecode": "0x60806040526040518060400160405280600781526020017f4469746f555344000000000000000000000000000000000000000000000000008152506000908051906020019061004f929190610146565b506040518060400160405280600481526020017f44555344000000000000000000000000000000000000000000000000000000008152506001908051906020019061009b929190610146565b503480156100a857600080fd5b5069d3c21bcecceda1000000600381905550600354600460003373ffffffffffffffffffffffffffffffffffffffff1673ffffffffffffffffffffffffffffffffffffffff1681526020019081526020016000208190555033600260006101000a81548173ffffffffffffffffffffffffffffffffffffffff021916908373ffffffffffffffffffffffffffffffffffffffff16021790555061024a565b828054610152906101e9565b90600052602060002090601f01602090048101928261017457600085556101bb565b82601f1061018d57805160ff19168380011785556101bb565b828001600101855582156101bb579182015b828111156101ba57825182559160200191906001019061019f565b5b5090506101c891906101cc565b5090565b5b808211156101e55760008160009055506001016101cd565b5090565b6000600282049050600182168061020157607f821691505b602082108114156102155761021461021b565b5b50919050565b7f4e487b7100000000000000000000000000000000000000000000000000000000600052602260045260246000fd5b6109ce806102596000396000f3fe608060405234801561001057600080fd5b50600436106100625760003560e01c80633045aaf3146100675780637ce8bb88146100855780638052474d146100b557806382811a2c146100d35780639186886a146100ef578063c1f8c6481461010d575b600080fd5b61006f61013d565b60405161007c91906106d1565b60405180910390f35b61009f600480360381019061009a9190610554565b6101cb565b6040516100ac9190610733565b60405180910390f35b6100bd610214565b6040516100ca91906106d1565b60405180910390f35b6100ed60048036038101906100e8919061057d565b6102a2565b005b6100f76103be565b6040516101049190610733565b60405180910390f35b6101276004803603810190610122919061057d565b6103c4565b60405161013491906106b6565b60405180910390f35b6001805461014a906108c9565b80601f0160208091040260200160405190810160405280929190818152602001828054610176906108c9565b80156101c35780601f10610198576101008083540402835291602001916101c3565b820191906000526020600020905b8154815290600101906020018083116101a657829003601f168201915b505050505081565b6000600460008373ffffffffffffffffffffffffffffffffffffffff1673ffffffffffffffffffffffffffffffffffffffff168152602001908152602001600020549050919050565b60008054610221906108c9565b80601f016020809104026020016040519081016040528092919081815260200182805461024d906108c9565b801561029a5780601f1061026f5761010080835404028352916020019161029a565b820191906000526020600020905b81548152906001019060200180831161027d57829003601f168201915b505050505081565b6000670de0b6b3a7640000826102b891906107c0565b9050600260009054906101000a900473ffffffffffffffffffffffffffffffffffffffff1673ffffffffffffffffffffffffffffffffffffffff163373ffffffffffffffffffffffffffffffffffffffff161461034a576040517f08c379a0000000000000000000000000000000000000000000000000000000008152600401610341906106f3565b60405180910390fd5b806003600082825461035c919061076a565b9250508190555080600460008573ffffffffffffffffffffffffffffffffffffffff1673ffffffffffffffffffffffffffffffffffffffff16815260200190815260200160002060008282546103b2919061076a565b92505081905550505050565b60035481565b6000670de0b6b3a7640000826103da91906107c0565b600460003373ffffffffffffffffffffffffffffffffffffffff1673ffffffffffffffffffffffffffffffffffffffff16815260200190815260200160002054101561045b576040517f08c379a000000000000000000000000000000000000000000000000000000000815260040161045290610713565b60405180910390fd5b6000670de0b6b3a76400008361047191906107c0565b905080600460003373ffffffffffffffffffffffffffffffffffffffff1673ffffffffffffffffffffffffffffffffffffffff16815260200190815260200160002060008282546104c2919061081a565b9250508190555080600460008673ffffffffffffffffffffffffffffffffffffffff1673ffffffffffffffffffffffffffffffffffffffff1681526020019081526020016000206000828254610518919061076a565b92505081905550600191505092915050565b6000813590506105398161096a565b92915050565b60008135905061054e81610981565b92915050565b60006020828403121561056657600080fd5b60006105748482850161052a565b91505092915050565b6000806040838503121561059057600080fd5b600061059e8582860161052a565b92505060206105af8582860161053f565b9150509250929050565b6105c281610860565b82525050565b60006105d38261074e565b6105dd8185610759565b93506105ed818560208601610896565b6105f681610959565b840191505092915050565b600061060e602283610759565b91507f4e6f205065726d697373696f6e20746f2075736520746869732066756e63746960008301527f6f6e0000000000000000000000000000000000000000000000000000000000006020830152604082019050919050565b6000610674601483610759565b91507f496e73756666696369656e742042616c616e63650000000000000000000000006000830152602082019050919050565b6106b08161088c565b82525050565b60006020820190506106cb60008301846105b9565b92915050565b600060208201905081810360008301526106eb81846105c8565b905092915050565b6000602082019050818103600083015261070c81610601565b9050919050565b6000602082019050818103600083015261072c81610667565b9050919050565b600060208201905061074860008301846106a7565b92915050565b600081519050919050565b600082825260208201905092915050565b60006107758261088c565b91506107808361088c565b9250827fffffffffffffffffffffffffffffffffffffffffffffffffffffffffffffffff038211156107b5576107b46108fb565b5b828201905092915050565b60006107cb8261088c565b91506107d68361088c565b9250817fffffffffffffffffffffffffffffffffffffffffffffffffffffffffffffffff048311821515161561080f5761080e6108fb565b5b828202905092915050565b60006108258261088c565b91506108308361088c565b925082821015610843576108426108fb565b5b828203905092915050565b60006108598261086c565b9050919050565b60008115159050919050565b600073ffffffffffffffffffffffffffffffffffffffff82169050919050565b6000819050919050565b60005b838110156108b4578082015181840152602081019050610899565b838111156108c3576000848401525b50505050565b600060028204905060018216806108e157607f821691505b602082108114156108f5576108f461092a565b5b50919050565b7f4e487b7100000000000000000000000000000000000000000000000000000000600052601160045260246000fd5b7f4e487b7100000000000000000000000000000000000000000000000000000000600052602260045260246000fd5b6000601f19601f8301169050919050565b6109738161084e565b811461097e57600080fd5b50565b61098a8161088c565b811461099557600080fd5b5056fea2646970667358221220adca5cccb05942b174eb4b445807b9f92ecd9620c311825c7aabffb602d6802b64736f6c63430008000033",
  "linkReferences": {},
  "deployedLinkReferences": {}
}