{
  "_format": "hh-sol-artifact-1",
  "contractName": "MockUSDT",
  "sourceName": "contracts/MockUSDT.sol",
  "abi": [
    {
      "inputs": [],
      "stateMutability": "nonpayable",
      "type": "constructor"
    },
    {
      "anonymous": false,
      "inputs": [
        {
          "indexed": false,
          "internalType": "address",
          "name": "_from",
          "type": "address"
        },
        {
          "indexed": false,
          "internalType": "address",
          "name": "_to",
          "type": "address"
        },
        {
          "indexed": false,
          "internalType": "uint256",
          "name": "_amount",
          "type": "uint256"
        }
      ],
      "name": "Approv",
      "type": "event"
    },
    {
      "anonymous": false,
      "inputs": [
        {
          "indexed": false,
          "internalType": "address",
          "name": "_from",
          "type": "address"
        },
        {
          "indexed": false,
          "internalType": "address",
          "name": "_to",
          "type": "address"
        },
        {
          "indexed": false,
          "internalType": "uint256",
          "name": "_amount",
          "type": "uint256"
        }
      ],
      "name": "Trans",
      "type": "event"
    },
    {
      "inputs": [
        {
          "internalType": "address",
          "name": "",
          "type": "address"
        },
        {
          "internalType": "address",
          "name": "",
          "type": "address"
        }
      ],
      "name": "allowance",
      "outputs": [
        {
          "internalType": "uint256",
          "name": "",
          "type": "uint256"
        }
      ],
      "stateMutability": "view",
      "type": "function"
    },
    {
      "inputs": [
        {
          "internalType": "address",
          "name": "_spender",
          "type": "address"
        },
        {
          "internalType": "uint256",
          "name": "_amount",
          "type": "uint256"
        }
      ],
      "name": "approve",
      "outputs": [
        {
          "internalType": "bool",
          "name": "",
          "type": "bool"
        }
      ],
      "stateMutability": "nonpayable",
      "type": "function"
    },
    {
      "inputs": [
        {
          "internalType": "address",
          "name": "_addr",
          "type": "address"
        }
      ],
      "name": "balanceOf",
      "outputs": [
        {
          "internalType": "uint256",
          "name": "",
          "type": "uint256"
        }
      ],
      "stateMutability": "view",
      "type": "function"
    },
    {
      "inputs": [
        {
          "internalType": "address",
          "name": "",
          "type": "address"
        }
      ],
      "name": "balances",
      "outputs": [
        {
          "internalType": "uint256",
          "name": "",
          "type": "uint256"
        }
      ],
      "stateMutability": "view",
      "type": "function"
    },
    {
      "inputs": [],
      "name": "buyMUSDT",
      "outputs": [
        {
          "internalType": "string",
          "name": "",
          "type": "string"
        }
      ],
      "stateMutability": "payable",
      "type": "function"
    },
    {
      "inputs": [],
      "name": "buyPrice",
      "outputs": [
        {
          "internalType": "uint256",
          "name": "",
          "type": "uint256"
        }
      ],
      "stateMutability": "view",
      "type": "function"
    },
    {
      "inputs": [
        {
          "internalType": "uint256",
          "name": "_amount",
          "type": "uint256"
        }
      ],
      "name": "mintMUSDT",
      "outputs": [
        {
          "internalType": "bool",
          "name": "",
          "type": "bool"
        }
      ],
      "stateMutability": "nonpayable",
      "type": "function"
    },
    {
      "inputs": [
        {
          "internalType": "uint256",
          "name": "_price",
          "type": "uint256"
        }
      ],
      "name": "modifyTokenBuyPrice",
      "outputs": [
        {
          "internalType": "string",
          "name": "",
          "type": "string"
        },
        {
          "internalType": "uint256",
          "name": "",
          "type": "uint256"
        },
        {
          "internalType": "string",
          "name": "",
          "type": "string"
        }
      ],
      "stateMutability": "nonpayable",
      "type": "function"
    },
    {
      "inputs": [],
      "name": "totalSupply",
      "outputs": [
        {
          "internalType": "uint256",
          "name": "",
          "type": "uint256"
        }
      ],
      "stateMutability": "view",
      "type": "function"
    },
    {
      "inputs": [
        {
          "internalType": "address",
          "name": "_to",
          "type": "address"
        },
        {
          "internalType": "uint256",
          "name": "_amount",
          "type": "uint256"
        }
      ],
      "name": "transfer",
      "outputs": [
        {
          "internalType": "bool",
          "name": "",
          "type": "bool"
        }
      ],
      "stateMutability": "nonpayable",
      "type": "function"
    },
    {
      "inputs": [
        {
          "internalType": "address",
          "name": "_from",
          "type": "address"
        },
        {
          "internalType": "address",
          "name": "_to",
          "type": "address"
        },
        {
          "internalType": "uint256",
          "name": "_amount",
          "type": "uint256"
        }
      ],
      "name": "transferFrom",
      "outputs": [
        {
          "internalType": "bool",
          "name": "",
          "type": "bool"
        }
      ],
      "stateMutability": "nonpayable",
      "type": "function"
    }
  ],
  "bytecode": "0x60806040523480156200001157600080fd5b506040518060400160405280600881526020017f4d6f636b55534454000000000000000000000000000000000000000000000000815250600090805190602001906200005f92919062000154565b506040518060400160405280600581526020017f4d5553445400000000000000000000000000000000000000000000000000000081525060019080519060200190620000ad92919062000154565b50683635c9adc5dea00000600381905550600354600560003373ffffffffffffffffffffffffffffffffffffffff1673ffffffffffffffffffffffffffffffffffffffff1681526020019081526020016000208190555033600260006101000a81548173ffffffffffffffffffffffffffffffffffffffff021916908373ffffffffffffffffffffffffffffffffffffffff1602179055506107d060048190555062000269565b828054620001629062000204565b90600052602060002090601f016020900481019282620001865760008555620001d2565b82601f10620001a157805160ff1916838001178555620001d2565b82800160010185558215620001d2579182015b82811115620001d1578251825591602001919060010190620001b4565b5b509050620001e19190620001e5565b5090565b5b8082111562000200576000816000905550600101620001e6565b5090565b600060028204905060018216806200021d57607f821691505b602082108114156200023457620002336200023a565b5b50919050565b7f4e487b7100000000000000000000000000000000000000000000000000000000600052602260045260246000fd5b6112fd80620002796000396000f3fe60806040526004361061009c5760003560e01c8063834dc98411610064578063834dc984146101c05780638620410b146101ff57806398b96e1e1461022a578063a9059cbb14610267578063b764f3d1146102a4578063dd62ed3e146102c25761009c565b8063095ea7b3146100a157806318160ddd146100de57806323b872dd1461010957806327e235e31461014657806370a0823114610183575b600080fd5b3480156100ad57600080fd5b506100c860048036038101906100c39190610cc7565b6102ff565b6040516100d59190610fa1565b60405180910390f35b3480156100ea57600080fd5b506100f36103c7565b60405161010091906110c3565b60405180910390f35b34801561011557600080fd5b50610130600480360381019061012b9190610c78565b6103cd565b60405161013d9190610fa1565b60405180910390f35b34801561015257600080fd5b5061016d60048036038101906101689190610c13565b6106af565b60405161017a91906110c3565b60405180910390f35b34801561018f57600080fd5b506101aa60048036038101906101a59190610c13565b6106c7565b6040516101b791906110c3565b60405180910390f35b3480156101cc57600080fd5b506101e760048036038101906101e29190610d03565b610710565b6040516101f693929190610fde565b60405180910390f35b34801561020b57600080fd5b50610214610828565b60405161022191906110c3565b60405180910390f35b34801561023657600080fd5b50610251600480360381019061024c9190610d03565b61082e565b60405161025e9190610fa1565b60405180910390f35b34801561027357600080fd5b5061028e60048036038101906102899190610cc7565b610964565b60405161029b9190610fa1565b60405180910390f35b6102ac610b05565b6040516102b99190610fbc565b60405180910390f35b3480156102ce57600080fd5b506102e960048036038101906102e49190610c3c565b610bc4565b6040516102f691906110c3565b60405180910390f35b600081600660003373ffffffffffffffffffffffffffffffffffffffff1673ffffffffffffffffffffffffffffffffffffffff16815260200190815260200160002060008573ffffffffffffffffffffffffffffffffffffffff1673ffffffffffffffffffffffffffffffffffffffff168152602001908152602001600020819055507fa0238058eb7a8d63d887821f0641e3c4502bfeff4d777c13a709ed5b5975259d3384846040516103b593929190610f6a565b60405180910390a16001905092915050565b60035481565b6000670de0b6b3a7640000826103e39190611150565b6103ec856106c7565b101561042d576040517f08c379a000000000000000000000000000000000000000000000000000000000815260040161042490611083565b60405180910390fd5b600660008573ffffffffffffffffffffffffffffffffffffffff1673ffffffffffffffffffffffffffffffffffffffff16815260200190815260200160002060003373ffffffffffffffffffffffffffffffffffffffff1673ffffffffffffffffffffffffffffffffffffffff168152602001908152602001600020548211156104ec576040517f08c379a00000000000000000000000000000000000000000000000000000000081526004016104e390611043565b60405180910390fd5b670de0b6b3a7640000826105009190611150565b600560008673ffffffffffffffffffffffffffffffffffffffff1673ffffffffffffffffffffffffffffffffffffffff168152602001908152602001600020600082825461054e91906111aa565b92505081905550670de0b6b3a7640000826105699190611150565b600660008673ffffffffffffffffffffffffffffffffffffffff1673ffffffffffffffffffffffffffffffffffffffff16815260200190815260200160002060003373ffffffffffffffffffffffffffffffffffffffff1673ffffffffffffffffffffffffffffffffffffffff16815260200190815260200160002060008282546105f491906111aa565b925050819055506012600a8361060a9190611150565b6106149190611150565b600560008573ffffffffffffffffffffffffffffffffffffffff1673ffffffffffffffffffffffffffffffffffffffff168152602001908152602001600020600082825461066291906110fa565b925050819055507f9bcd4a080462731b2812ce729d5733221a967dfbb88c63391ad7091471ea843184848460405161069c93929190610f6a565b60405180910390a1600190509392505050565b60056020528060005260406000206000915090505481565b6000600560008373ffffffffffffffffffffffffffffffffffffffff1673ffffffffffffffffffffffffffffffffffffffff168152602001908152602001600020549050919050565b606060006060600260009054906101000a900473ffffffffffffffffffffffffffffffffffffffff1673ffffffffffffffffffffffffffffffffffffffff163373ffffffffffffffffffffffffffffffffffffffff16146107a6576040517f08c379a000000000000000000000000000000000000000000000000000000000815260040161079d90611063565b60405180910390fd5b83600481905550836040518060400160405280601e81526020017f42757920707269636520686173206265656e206368616e67656420746f200000815250906040518060400160405280600a81526020017f20706572204574686572000000000000000000000000000000000000000000008152509250925092509193909250565b60045481565b6000600260009054906101000a900473ffffffffffffffffffffffffffffffffffffffff1673ffffffffffffffffffffffffffffffffffffffff163373ffffffffffffffffffffffffffffffffffffffff16146108c0576040517f08c379a00000000000000000000000000000000000000000000000000000000081526004016108b7906110a3565b60405180910390fd5b6000670de0b6b3a7640000836108d69190611150565b905080600360008282546108ea91906110fa565b92505081905550670de0b6b3a7640000816109059190611150565b600560003373ffffffffffffffffffffffffffffffffffffffff1673ffffffffffffffffffffffffffffffffffffffff168152602001908152602001600020600082825461095391906110fa565b925050819055506001915050919050565b6000670de0b6b3a76400008261097a9190611150565b600560003373ffffffffffffffffffffffffffffffffffffffff1673ffffffffffffffffffffffffffffffffffffffff1681526020019081526020016000205410156109fb576040517f08c379a00000000000000000000000000000000000000000000000000000000081526004016109f290611023565b60405180910390fd5b6000670de0b6b3a764000083610a119190611150565b905080600560003373ffffffffffffffffffffffffffffffffffffffff1673ffffffffffffffffffffffffffffffffffffffff1681526020019081526020016000206000828254610a6291906111aa565b9250508190555080600560008673ffffffffffffffffffffffffffffffffffffffff1673ffffffffffffffffffffffffffffffffffffffff1681526020019081526020016000206000828254610ab891906110fa565b925050819055507f9bcd4a080462731b2812ce729d5733221a967dfbb88c63391ad7091471ea8431338585604051610af293929190610f6a565b60405180910390a1600191505092915050565b6060600060045434610b179190611150565b905080600560003373ffffffffffffffffffffffffffffffffffffffff1673ffffffffffffffffffffffffffffffffffffffff1681526020019081526020016000206000828254610b6891906110fa565b925050819055508060036000828254610b8191906110fa565b925050819055506040518060400160405280600881526020017f526563696576656400000000000000000000000000000000000000000000000081525091505090565b6006602052816000526040600020602052806000526040600020600091509150505481565b600081359050610bf881611299565b92915050565b600081359050610c0d816112b0565b92915050565b600060208284031215610c2557600080fd5b6000610c3384828501610be9565b91505092915050565b60008060408385031215610c4f57600080fd5b6000610c5d85828601610be9565b9250506020610c6e85828601610be9565b9150509250929050565b600080600060608486031215610c8d57600080fd5b6000610c9b86828701610be9565b9350506020610cac86828701610be9565b9250506040610cbd86828701610bfe565b9150509250925092565b60008060408385031215610cda57600080fd5b6000610ce885828601610be9565b9250506020610cf985828601610bfe565b9150509250929050565b600060208284031215610d1557600080fd5b6000610d2384828501610bfe565b91505092915050565b610d35816111de565b82525050565b610d44816111f0565b82525050565b6000610d55826110de565b610d5f81856110e9565b9350610d6f818560208601611226565b610d7881611288565b840191505092915050565b6000610d906014836110e9565b91507f496e73756666696369656e742062616c616e63650000000000000000000000006000830152602082019050919050565b6000610dd06054836110e9565b91507f616d6f756e74206e6f7420616c6c6f7765642c75736520746865206170726f7660008301527f652066756e6374696f6e20746f20617070726f766520616e206164647265737360208301527f20616e64207370656e64696e6720616d6f756e740000000000000000000000006040830152606082019050919050565b6000610e5c6021836110e9565b91507f206f6e6c79206f776e65722063616e2075736520746869732066756e6374696f60008301527f6e000000000000000000000000000000000000000000000000000000000000006020830152604082019050919050565b6000610ec26014836110e9565b91507f696e73756666696369656e742062616c616e63650000000000000000000000006000830152602082019050919050565b6000610f02602b836110e9565b91507f596f7520617265206e6f7420617574686f72697a656420746f2075736520746860008301527f69732066756e6374696f6e0000000000000000000000000000000000000000006020830152604082019050919050565b610f648161121c565b82525050565b6000606082019050610f7f6000830186610d2c565b610f8c6020830185610d2c565b610f996040830184610f5b565b949350505050565b6000602082019050610fb66000830184610d3b565b92915050565b60006020820190508181036000830152610fd68184610d4a565b905092915050565b60006060820190508181036000830152610ff88186610d4a565b90506110076020830185610f5b565b81810360408301526110198184610d4a565b9050949350505050565b6000602082019050818103600083015261103c81610d83565b9050919050565b6000602082019050818103600083015261105c81610dc3565b9050919050565b6000602082019050818103600083015261107c81610e4f565b9050919050565b6000602082019050818103600083015261109c81610eb5565b9050919050565b600060208201905081810360008301526110bc81610ef5565b9050919050565b60006020820190506110d86000830184610f5b565b92915050565b600081519050919050565b600082825260208201905092915050565b60006111058261121c565b91506111108361121c565b9250827fffffffffffffffffffffffffffffffffffffffffffffffffffffffffffffffff0382111561114557611144611259565b5b828201905092915050565b600061115b8261121c565b91506111668361121c565b9250817fffffffffffffffffffffffffffffffffffffffffffffffffffffffffffffffff048311821515161561119f5761119e611259565b5b828202905092915050565b60006111b58261121c565b91506111c08361121c565b9250828210156111d3576111d2611259565b5b828203905092915050565b60006111e9826111fc565b9050919050565b60008115159050919050565b600073ffffffffffffffffffffffffffffffffffffffff82169050919050565b6000819050919050565b60005b83811015611244578082015181840152602081019050611229565b83811115611253576000848401525b50505050565b7f4e487b7100000000000000000000000000000000000000000000000000000000600052601160045260246000fd5b6000601f19601f8301169050919050565b6112a2816111de565b81146112ad57600080fd5b50565b6112b98161121c565b81146112c457600080fd5b5056fea264697066735822122006123ca224d65719750d2d8876beefd8694cf92f24970770ab0355243e4bc30d64736f6c63430008000033",
  "linkReferences": {},
  "deployedLinkReferences": {}
}