{
  "_format": "hh-sol-artifact-1",
  "contractName": "MockUSDT",
  "sourceName": "contracts/MockUSDT.sol",
  "abi": [
    {
      "inputs": [],
      "stateMutability": "nonpayable",
      "type": "constructor"
    },
    {
      "anonymous": false,
      "inputs": [
        {
          "indexed": true,
          "internalType": "address",
          "name": "_from",
          "type": "address"
        },
        {
          "indexed": true,
          "internalType": "address",
          "name": "_to",
          "type": "address"
        },
        {
          "indexed": false,
          "internalType": "uint256",
          "name": "_amount",
          "type": "uint256"
        }
      ],
      "name": "Approv",
      "type": "event"
    },
    {
      "anonymous": false,
      "inputs": [
        {
          "indexed": true,
          "internalType": "address",
          "name": "_from",
          "type": "address"
        },
        {
          "indexed": true,
          "internalType": "address",
          "name": "_to",
          "type": "address"
        },
        {
          "indexed": false,
          "internalType": "uint256",
          "name": "_amount",
          "type": "uint256"
        }
      ],
      "name": "Trans",
      "type": "event"
    },
    {
      "inputs": [],
      "name": "_totalSupply",
      "outputs": [
        {
          "internalType": "uint256",
          "name": "",
          "type": "uint256"
        }
      ],
      "stateMutability": "view",
      "type": "function"
    },
    {
      "inputs": [
        {
          "internalType": "address",
          "name": "_spender",
          "type": "address"
        },
        {
          "internalType": "uint256",
          "name": "_value",
          "type": "uint256"
        }
      ],
      "name": "approve",
      "outputs": [
        {
          "internalType": "bool",
          "name": "",
          "type": "bool"
        }
      ],
      "stateMutability": "nonpayable",
      "type": "function"
    },
    {
      "inputs": [
        {
          "internalType": "address",
          "name": "_owner",
          "type": "address"
        }
      ],
      "name": "balanceOf",
      "outputs": [
        {
          "internalType": "uint256",
          "name": "",
          "type": "uint256"
        }
      ],
      "stateMutability": "view",
      "type": "function"
    },
    {
      "inputs": [],
      "name": "buyMUSDT",
      "outputs": [
        {
          "internalType": "string",
          "name": "",
          "type": "string"
        }
      ],
      "stateMutability": "payable",
      "type": "function"
    },
    {
      "inputs": [],
      "name": "buyPrice",
      "outputs": [
        {
          "internalType": "uint256",
          "name": "",
          "type": "uint256"
        }
      ],
      "stateMutability": "view",
      "type": "function"
    },
    {
      "inputs": [],
      "name": "decimals",
      "outputs": [
        {
          "internalType": "uint8",
          "name": "",
          "type": "uint8"
        }
      ],
      "stateMutability": "view",
      "type": "function"
    },
    {
      "inputs": [
        {
          "internalType": "uint256",
          "name": "_amount",
          "type": "uint256"
        }
      ],
      "name": "mintMUSDT",
      "outputs": [
        {
          "internalType": "bool",
          "name": "",
          "type": "bool"
        }
      ],
      "stateMutability": "nonpayable",
      "type": "function"
    },
    {
      "inputs": [
        {
          "internalType": "uint256",
          "name": "_price",
          "type": "uint256"
        }
      ],
      "name": "modifyTokenBuyPrice",
      "outputs": [
        {
          "internalType": "string",
          "name": "",
          "type": "string"
        },
        {
          "internalType": "uint256",
          "name": "",
          "type": "uint256"
        },
        {
          "internalType": "string",
          "name": "",
          "type": "string"
        }
      ],
      "stateMutability": "nonpayable",
      "type": "function"
    },
    {
      "inputs": [],
      "name": "name",
      "outputs": [
        {
          "internalType": "string",
          "name": "",
          "type": "string"
        }
      ],
      "stateMutability": "view",
      "type": "function"
    },
    {
      "inputs": [],
      "name": "symbol",
      "outputs": [
        {
          "internalType": "string",
          "name": "",
          "type": "string"
        }
      ],
      "stateMutability": "view",
      "type": "function"
    },
    {
      "inputs": [],
      "name": "totalSupply",
      "outputs": [
        {
          "internalType": "uint256",
          "name": "",
          "type": "uint256"
        }
      ],
      "stateMutability": "view",
      "type": "function"
    },
    {
      "inputs": [
        {
          "internalType": "address",
          "name": "_to",
          "type": "address"
        },
        {
          "internalType": "uint256",
          "name": "_value",
          "type": "uint256"
        }
      ],
      "name": "transfer",
      "outputs": [
        {
          "internalType": "bool",
          "name": "",
          "type": "bool"
        }
      ],
      "stateMutability": "nonpayable",
      "type": "function"
    },
    {
      "inputs": [
        {
          "internalType": "address",
          "name": "_from",
          "type": "address"
        },
        {
          "internalType": "address",
          "name": "_to",
          "type": "address"
        },
        {
          "internalType": "uint256",
          "name": "_value",
          "type": "uint256"
        }
      ],
      "name": "transferFrom",
      "outputs": [
        {
          "internalType": "bool",
          "name": "",
          "type": "bool"
        }
      ],
      "stateMutability": "nonpayable",
      "type": "function"
    }
  ],
  "bytecode": "0x60806040523480156200001157600080fd5b506040518060400160405280600881526020017f4d6f636b55534454000000000000000000000000000000000000000000000000815250600090805190602001906200005f92919062000170565b506040518060400160405280600581526020017f4d5553445400000000000000000000000000000000000000000000000000000081525060019080519060200190620000ad92919062000170565b506012600460006101000a81548160ff021916908360ff160217905550683635c9adc5dea00000600381905550600354600660003373ffffffffffffffffffffffffffffffffffffffff1673ffffffffffffffffffffffffffffffffffffffff1681526020019081526020016000208190555033600260006101000a81548173ffffffffffffffffffffffffffffffffffffffff021916908373ffffffffffffffffffffffffffffffffffffffff1602179055506107d060058190555062000285565b8280546200017e9062000220565b90600052602060002090601f016020900481019282620001a25760008555620001ee565b82601f10620001bd57805160ff1916838001178555620001ee565b82800160010185558215620001ee579182015b82811115620001ed578251825591602001919060010190620001d0565b5b509050620001fd919062000201565b5090565b5b808211156200021c57600081600090555060010162000202565b5090565b600060028204905060018216806200023957607f821691505b6020821081141562000250576200024f62000256565b5b50919050565b7f4e487b7100000000000000000000000000000000000000000000000000000000600052602260045260246000fd5b61153c80620002956000396000f3fe6080604052600436106100c25760003560e01c806370a082311161007f57806395d89b411161005957806395d89b411461029457806398b96e1e146102bf578063a9059cbb146102fc578063b764f3d114610339576100c2565b806370a08231146101ed578063834dc9841461022a5780638620410b14610269576100c2565b806306fdde03146100c7578063095ea7b3146100f257806318160ddd1461012f57806323b872dd1461015a578063313ce567146101975780633eaaf86b146101c2575b600080fd5b3480156100d357600080fd5b506100dc610357565b6040516100e99190611172565b60405180910390f35b3480156100fe57600080fd5b5061011960048036038101906101149190610eb4565b6103e9565b6040516101269190611157565b60405180910390f35b34801561013b57600080fd5b50610144610505565b6040516101519190611279565b60405180910390f35b34801561016657600080fd5b50610181600480360381019061017c9190610e65565b61050f565b60405161018e9190611157565b60405180910390f35b3480156101a357600080fd5b506101ac61083c565b6040516101b99190611294565b60405180910390f35b3480156101ce57600080fd5b506101d7610853565b6040516101e49190611279565b60405180910390f35b3480156101f957600080fd5b50610214600480360381019061020f9190610e3c565b610859565b6040516102219190611279565b60405180910390f35b34801561023657600080fd5b50610251600480360381019061024c9190610ef0565b6108a2565b60405161026093929190611194565b60405180910390f35b34801561027557600080fd5b5061027e6109ba565b60405161028b9190611279565b60405180910390f35b3480156102a057600080fd5b506102a96109c0565b6040516102b69190611172565b60405180910390f35b3480156102cb57600080fd5b506102e660048036038101906102e19190610ef0565b610a52565b6040516102f39190611157565b60405180910390f35b34801561030857600080fd5b50610323600480360381019061031e9190610eb4565b610b88565b6040516103309190611157565b60405180910390f35b610341610d53565b60405161034e9190611172565b60405180910390f35b60606000805461036690611437565b80601f016020809104026020016040519081016040528092919081815260200182805461039290611437565b80156103df5780601f106103b4576101008083540402835291602001916103df565b820191906000526020600020905b8154815290600101906020018083116103c257829003601f168201915b5050505050905090565b600080670de0b6b3a7640000836104009190611321565b905080600760003373ffffffffffffffffffffffffffffffffffffffff1673ffffffffffffffffffffffffffffffffffffffff16815260200190815260200160002060008673ffffffffffffffffffffffffffffffffffffffff1673ffffffffffffffffffffffffffffffffffffffff168152602001908152602001600020600082825461048e91906112cb565b925050819055508373ffffffffffffffffffffffffffffffffffffffff163373ffffffffffffffffffffffffffffffffffffffff167fa0238058eb7a8d63d887821f0641e3c4502bfeff4d777c13a709ed5b5975259d836040516104f29190611279565b60405180910390a3600191505092915050565b6000600354905090565b6000670de0b6b3a7640000826105259190611321565b61052e85610859565b101561056f576040517f08c379a000000000000000000000000000000000000000000000000000000000815260040161056690611239565b60405180910390fd5b600760008573ffffffffffffffffffffffffffffffffffffffff1673ffffffffffffffffffffffffffffffffffffffff16815260200190815260200160002060003373ffffffffffffffffffffffffffffffffffffffff1673ffffffffffffffffffffffffffffffffffffffff16815260200190815260200160002054670de0b6b3a7640000836106009190611321565b1115610641576040517f08c379a0000000000000000000000000000000000000000000000000000000008152600401610638906111f9565b60405180910390fd5b670de0b6b3a7640000826106559190611321565b600660008673ffffffffffffffffffffffffffffffffffffffff1673ffffffffffffffffffffffffffffffffffffffff16815260200190815260200160002060008282546106a3919061137b565b92505081905550670de0b6b3a7640000826106be9190611321565b600760008673ffffffffffffffffffffffffffffffffffffffff1673ffffffffffffffffffffffffffffffffffffffff16815260200190815260200160002060003373ffffffffffffffffffffffffffffffffffffffff1673ffffffffffffffffffffffffffffffffffffffff1681526020019081526020016000206000828254610749919061137b565b92505081905550670de0b6b3a7640000826107649190611321565b600660008573ffffffffffffffffffffffffffffffffffffffff1673ffffffffffffffffffffffffffffffffffffffff16815260200190815260200160002060008282546107b291906112cb565b925050819055508273ffffffffffffffffffffffffffffffffffffffff168473ffffffffffffffffffffffffffffffffffffffff167f9bcd4a080462731b2812ce729d5733221a967dfbb88c63391ad7091471ea8431670de0b6b3a76400008561081c9190611321565b6040516108299190611279565b60405180910390a3600190509392505050565b6000600460009054906101000a900460ff16905090565b60035481565b6000600660008373ffffffffffffffffffffffffffffffffffffffff1673ffffffffffffffffffffffffffffffffffffffff168152602001908152602001600020549050919050565b606060006060600260009054906101000a900473ffffffffffffffffffffffffffffffffffffffff1673ffffffffffffffffffffffffffffffffffffffff163373ffffffffffffffffffffffffffffffffffffffff1614610938576040517f08c379a000000000000000000000000000000000000000000000000000000000815260040161092f90611219565b60405180910390fd5b83600581905550836040518060400160405280601e81526020017f42757920707269636520686173206265656e206368616e67656420746f200000815250906040518060400160405280600a81526020017f20706572204574686572000000000000000000000000000000000000000000008152509250925092509193909250565b60055481565b6060600180546109cf90611437565b80601f01602080910402602001604051908101604052809291908181526020018280546109fb90611437565b8015610a485780601f10610a1d57610100808354040283529160200191610a48565b820191906000526020600020905b815481529060010190602001808311610a2b57829003601f168201915b5050505050905090565b6000600260009054906101000a900473ffffffffffffffffffffffffffffffffffffffff1673ffffffffffffffffffffffffffffffffffffffff163373ffffffffffffffffffffffffffffffffffffffff1614610ae4576040517f08c379a0000000000000000000000000000000000000000000000000000000008152600401610adb90611259565b60405180910390fd5b6000670de0b6b3a764000083610afa9190611321565b90508060036000828254610b0e91906112cb565b92505081905550670de0b6b3a764000081610b299190611321565b600660003373ffffffffffffffffffffffffffffffffffffffff1673ffffffffffffffffffffffffffffffffffffffff1681526020019081526020016000206000828254610b7791906112cb565b925050819055506001915050919050565b6000670de0b6b3a764000082610b9e9190611321565b600660003373ffffffffffffffffffffffffffffffffffffffff1673ffffffffffffffffffffffffffffffffffffffff168152602001908152602001600020541015610c1f576040517f08c379a0000000000000000000000000000000000000000000000000000000008152600401610c16906111d9565b60405180910390fd5b6000670de0b6b3a764000083610c359190611321565b905080600660003373ffffffffffffffffffffffffffffffffffffffff1673ffffffffffffffffffffffffffffffffffffffff1681526020019081526020016000206000828254610c86919061137b565b9250508190555080600660008673ffffffffffffffffffffffffffffffffffffffff1673ffffffffffffffffffffffffffffffffffffffff1681526020019081526020016000206000828254610cdc91906112cb565b925050819055508373ffffffffffffffffffffffffffffffffffffffff163373ffffffffffffffffffffffffffffffffffffffff167f9bcd4a080462731b2812ce729d5733221a967dfbb88c63391ad7091471ea843183604051610d409190611279565b60405180910390a3600191505092915050565b6060600060055434610d659190611321565b905080600660003373ffffffffffffffffffffffffffffffffffffffff1673ffffffffffffffffffffffffffffffffffffffff1681526020019081526020016000206000828254610db691906112cb565b925050819055508060036000828254610dcf91906112cb565b925050819055506040518060400160405280600881526020017f526563696576656400000000000000000000000000000000000000000000000081525091505090565b600081359050610e21816114d8565b92915050565b600081359050610e36816114ef565b92915050565b600060208284031215610e4e57600080fd5b6000610e5c84828501610e12565b91505092915050565b600080600060608486031215610e7a57600080fd5b6000610e8886828701610e12565b9350506020610e9986828701610e12565b9250506040610eaa86828701610e27565b9150509250925092565b60008060408385031215610ec757600080fd5b6000610ed585828601610e12565b9250506020610ee685828601610e27565b9150509250929050565b600060208284031215610f0257600080fd5b6000610f1084828501610e27565b91505092915050565b610f22816113c1565b82525050565b6000610f33826112af565b610f3d81856112ba565b9350610f4d818560208601611404565b610f56816114c7565b840191505092915050565b6000610f6e6014836112ba565b91507f496e73756666696369656e742062616c616e63650000000000000000000000006000830152602082019050919050565b6000610fae6054836112ba565b91507f616d6f756e74206e6f7420616c6c6f7765642c75736520746865206170726f7660008301527f652066756e6374696f6e20746f20617070726f766520616e206164647265737360208301527f20616e64207370656e64696e6720616d6f756e740000000000000000000000006040830152606082019050919050565b600061103a6021836112ba565b91507f206f6e6c79206f776e65722063616e2075736520746869732066756e6374696f60008301527f6e000000000000000000000000000000000000000000000000000000000000006020830152604082019050919050565b60006110a06014836112ba565b91507f696e73756666696369656e742062616c616e63650000000000000000000000006000830152602082019050919050565b60006110e0602b836112ba565b91507f596f7520617265206e6f7420617574686f72697a656420746f2075736520746860008301527f69732066756e6374696f6e0000000000000000000000000000000000000000006020830152604082019050919050565b611142816113ed565b82525050565b611151816113f7565b82525050565b600060208201905061116c6000830184610f19565b92915050565b6000602082019050818103600083015261118c8184610f28565b905092915050565b600060608201905081810360008301526111ae8186610f28565b90506111bd6020830185611139565b81810360408301526111cf8184610f28565b9050949350505050565b600060208201905081810360008301526111f281610f61565b9050919050565b6000602082019050818103600083015261121281610fa1565b9050919050565b600060208201905081810360008301526112328161102d565b9050919050565b6000602082019050818103600083015261125281611093565b9050919050565b60006020820190508181036000830152611272816110d3565b9050919050565b600060208201905061128e6000830184611139565b92915050565b60006020820190506112a96000830184611148565b92915050565b600081519050919050565b600082825260208201905092915050565b60006112d6826113ed565b91506112e1836113ed565b9250827fffffffffffffffffffffffffffffffffffffffffffffffffffffffffffffffff0382111561131657611315611469565b5b828201905092915050565b600061132c826113ed565b9150611337836113ed565b9250817fffffffffffffffffffffffffffffffffffffffffffffffffffffffffffffffff04831182151516156113705761136f611469565b5b828202905092915050565b6000611386826113ed565b9150611391836113ed565b9250828210156113a4576113a3611469565b5b828203905092915050565b60006113ba826113cd565b9050919050565b60008115159050919050565b600073ffffffffffffffffffffffffffffffffffffffff82169050919050565b6000819050919050565b600060ff82169050919050565b60005b83811015611422578082015181840152602081019050611407565b83811115611431576000848401525b50505050565b6000600282049050600182168061144f57607f821691505b6020821081141561146357611462611498565b5b50919050565b7f4e487b7100000000000000000000000000000000000000000000000000000000600052601160045260246000fd5b7f4e487b7100000000000000000000000000000000000000000000000000000000600052602260045260246000fd5b6000601f19601f8301169050919050565b6114e1816113af565b81146114ec57600080fd5b50565b6114f8816113ed565b811461150357600080fd5b5056fea2646970667358221220e4a41aa74356517ba64d1941ae7aebd15bbe779de7601ce260b3bfe85f07ab0a64736f6c63430008000033",
  "linkReferences": {},
  "deployedLinkReferences": {}
}