{
  "_format": "hh-sol-artifact-1",
  "contractName": "DitoFarm",
  "sourceName": "contracts/DitoFarm.sol",
  "abi": [
    {
      "inputs": [],
      "stateMutability": "nonpayable",
      "type": "constructor"
    },
    {
      "anonymous": false,
      "inputs": [
        {
          "indexed": false,
          "internalType": "address",
          "name": "_from",
          "type": "address"
        },
        {
          "indexed": false,
          "internalType": "address",
          "name": "_to",
          "type": "address"
        },
        {
          "indexed": false,
          "internalType": "uint256",
          "name": "_amount",
          "type": "uint256"
        }
      ],
      "name": "Approv",
      "type": "event"
    },
    {
      "anonymous": false,
      "inputs": [
        {
          "indexed": false,
          "internalType": "address",
          "name": "_from",
          "type": "address"
        },
        {
          "indexed": false,
          "internalType": "address",
          "name": "_to",
          "type": "address"
        },
        {
          "indexed": false,
          "internalType": "uint256",
          "name": "_amount",
          "type": "uint256"
        }
      ],
      "name": "Trans",
      "type": "event"
    },
    {
      "inputs": [
        {
          "internalType": "address",
          "name": "_addr",
          "type": "address"
        }
      ],
      "name": "DbalanceOf",
      "outputs": [
        {
          "internalType": "uint256",
          "name": "",
          "type": "uint256"
        }
      ],
      "stateMutability": "view",
      "type": "function"
    },
    {
      "inputs": [],
      "name": "DtotalSupply",
      "outputs": [
        {
          "internalType": "uint256",
          "name": "",
          "type": "uint256"
        }
      ],
      "stateMutability": "view",
      "type": "function"
    },
    {
      "inputs": [
        {
          "internalType": "address",
          "name": "_addr",
          "type": "address"
        },
        {
          "internalType": "uint256",
          "name": "_amount",
          "type": "uint256"
        }
      ],
      "name": "Dtransfer",
      "outputs": [
        {
          "internalType": "bool",
          "name": "",
          "type": "bool"
        }
      ],
      "stateMutability": "nonpayable",
      "type": "function"
    },
    {
      "inputs": [],
      "name": "Name",
      "outputs": [
        {
          "internalType": "string",
          "name": "",
          "type": "string"
        }
      ],
      "stateMutability": "view",
      "type": "function"
    },
    {
      "inputs": [
        {
          "internalType": "uint256",
          "name": "_amount",
          "type": "uint256"
        }
      ],
      "name": "Stake",
      "outputs": [
        {
          "internalType": "string",
          "name": "",
          "type": "string"
        }
      ],
      "stateMutability": "nonpayable",
      "type": "function"
    },
    {
      "inputs": [],
      "name": "Symbol",
      "outputs": [
        {
          "internalType": "string",
          "name": "",
          "type": "string"
        }
      ],
      "stateMutability": "view",
      "type": "function"
    },
    {
      "inputs": [
        {
          "internalType": "address",
          "name": "",
          "type": "address"
        },
        {
          "internalType": "address",
          "name": "",
          "type": "address"
        }
      ],
      "name": "allowance",
      "outputs": [
        {
          "internalType": "uint256",
          "name": "",
          "type": "uint256"
        }
      ],
      "stateMutability": "view",
      "type": "function"
    },
    {
      "inputs": [
        {
          "internalType": "address",
          "name": "_spender",
          "type": "address"
        },
        {
          "internalType": "uint256",
          "name": "_amount",
          "type": "uint256"
        }
      ],
      "name": "approve",
      "outputs": [
        {
          "internalType": "bool",
          "name": "",
          "type": "bool"
        }
      ],
      "stateMutability": "nonpayable",
      "type": "function"
    },
    {
      "inputs": [
        {
          "internalType": "address",
          "name": "_addr",
          "type": "address"
        }
      ],
      "name": "balanceOf",
      "outputs": [
        {
          "internalType": "uint256",
          "name": "",
          "type": "uint256"
        }
      ],
      "stateMutability": "view",
      "type": "function"
    },
    {
      "inputs": [
        {
          "internalType": "address",
          "name": "",
          "type": "address"
        }
      ],
      "name": "balances",
      "outputs": [
        {
          "internalType": "uint256",
          "name": "",
          "type": "uint256"
        }
      ],
      "stateMutability": "view",
      "type": "function"
    },
    {
      "inputs": [],
      "name": "buyMUSDT",
      "outputs": [
        {
          "internalType": "string",
          "name": "",
          "type": "string"
        }
      ],
      "stateMutability": "payable",
      "type": "function"
    },
    {
      "inputs": [],
      "name": "buyPrice",
      "outputs": [
        {
          "internalType": "uint256",
          "name": "",
          "type": "uint256"
        }
      ],
      "stateMutability": "view",
      "type": "function"
    },
    {
      "inputs": [],
      "name": "collectReward",
      "outputs": [
        {
          "internalType": "string",
          "name": "",
          "type": "string"
        },
        {
          "internalType": "uint256",
          "name": "",
          "type": "uint256"
        },
        {
          "internalType": "string",
          "name": "",
          "type": "string"
        }
      ],
      "stateMutability": "nonpayable",
      "type": "function"
    },
    {
      "inputs": [
        {
          "internalType": "address",
          "name": "",
          "type": "address"
        }
      ],
      "name": "hasStaked",
      "outputs": [
        {
          "internalType": "bool",
          "name": "",
          "type": "bool"
        }
      ],
      "stateMutability": "view",
      "type": "function"
    },
    {
      "inputs": [
        {
          "internalType": "address",
          "name": "_addr",
          "type": "address"
        },
        {
          "internalType": "uint256",
          "name": "_amount",
          "type": "uint256"
        }
      ],
      "name": "mintDUSD",
      "outputs": [],
      "stateMutability": "nonpayable",
      "type": "function"
    },
    {
      "inputs": [
        {
          "internalType": "uint256",
          "name": "_amount",
          "type": "uint256"
        }
      ],
      "name": "mintMUSDT",
      "outputs": [
        {
          "internalType": "bool",
          "name": "",
          "type": "bool"
        }
      ],
      "stateMutability": "nonpayable",
      "type": "function"
    },
    {
      "inputs": [
        {
          "internalType": "uint256",
          "name": "_price",
          "type": "uint256"
        }
      ],
      "name": "modifyTokenBuyPrice",
      "outputs": [
        {
          "internalType": "string",
          "name": "",
          "type": "string"
        },
        {
          "internalType": "uint256",
          "name": "",
          "type": "uint256"
        },
        {
          "internalType": "string",
          "name": "",
          "type": "string"
        }
      ],
      "stateMutability": "nonpayable",
      "type": "function"
    },
    {
      "inputs": [],
      "name": "owner",
      "outputs": [
        {
          "internalType": "address",
          "name": "",
          "type": "address"
        }
      ],
      "stateMutability": "view",
      "type": "function"
    },
    {
      "inputs": [
        {
          "internalType": "address",
          "name": "",
          "type": "address"
        }
      ],
      "name": "reward",
      "outputs": [
        {
          "internalType": "uint256",
          "name": "",
          "type": "uint256"
        }
      ],
      "stateMutability": "view",
      "type": "function"
    },
    {
      "inputs": [
        {
          "internalType": "address",
          "name": "",
          "type": "address"
        }
      ],
      "name": "stakedToken",
      "outputs": [
        {
          "internalType": "uint256",
          "name": "",
          "type": "uint256"
        }
      ],
      "stateMutability": "view",
      "type": "function"
    },
    {
      "inputs": [
        {
          "internalType": "uint256",
          "name": "",
          "type": "uint256"
        }
      ],
      "name": "staker",
      "outputs": [
        {
          "internalType": "address",
          "name": "",
          "type": "address"
        }
      ],
      "stateMutability": "view",
      "type": "function"
    },
    {
      "inputs": [],
      "name": "totalSupply",
      "outputs": [
        {
          "internalType": "uint256",
          "name": "",
          "type": "uint256"
        }
      ],
      "stateMutability": "view",
      "type": "function"
    },
    {
      "inputs": [
        {
          "internalType": "address",
          "name": "_to",
          "type": "address"
        },
        {
          "internalType": "uint256",
          "name": "_amount",
          "type": "uint256"
        }
      ],
      "name": "transfer",
      "outputs": [
        {
          "internalType": "bool",
          "name": "",
          "type": "bool"
        }
      ],
      "stateMutability": "nonpayable",
      "type": "function"
    },
    {
      "inputs": [
        {
          "internalType": "address",
          "name": "_from",
          "type": "address"
        },
        {
          "internalType": "address",
          "name": "_to",
          "type": "address"
        },
        {
          "internalType": "uint256",
          "name": "_amount",
          "type": "uint256"
        }
      ],
      "name": "transferFrom",
      "outputs": [
        {
          "internalType": "bool",
          "name": "",
          "type": "bool"
        }
      ],
      "stateMutability": "nonpayable",
      "type": "function"
    },
    {
      "inputs": [],
      "name": "unstake",
      "outputs": [
        {
          "internalType": "string",
          "name": "",
          "type": "string"
        }
      ],
      "stateMutability": "nonpayable",
      "type": "function"
    }
  ],
  "bytecode": "0x60806040526040518060400160405280600781526020017f4469746f555344000000000000000000000000000000000000000000000000008152506007908051906020019062000051929190620002c9565b506040518060400160405280600481526020017f4455534400000000000000000000000000000000000000000000000000000000815250600890805190602001906200009f929190620002c9565b50348015620000ad57600080fd5b506040518060400160405280600881526020017f4d6f636b5553445400000000000000000000000000000000000000000000000081525060009080519060200190620000fb929190620002c9565b506040518060400160405280600581526020017f4d555344540000000000000000000000000000000000000000000000000000008152506001908051906020019062000149929190620002c9565b50683635c9adc5dea00000600381905550600354600560003373ffffffffffffffffffffffffffffffffffffffff1673ffffffffffffffffffffffffffffffffffffffff1681526020019081526020016000208190555033600260006101000a81548173ffffffffffffffffffffffffffffffffffffffff021916908373ffffffffffffffffffffffffffffffffffffffff1602179055506107d060048190555069d3c21bcecceda1000000600a81905550600a54600b60003373ffffffffffffffffffffffffffffffffffffffff1673ffffffffffffffffffffffffffffffffffffffff1681526020019081526020016000208190555033600960006101000a81548173ffffffffffffffffffffffffffffffffffffffff021916908373ffffffffffffffffffffffffffffffffffffffff16021790555033600c60006101000a81548173ffffffffffffffffffffffffffffffffffffffff021916908373ffffffffffffffffffffffffffffffffffffffff160217905550620003de565b828054620002d79062000379565b90600052602060002090601f016020900481019282620002fb576000855562000347565b82601f106200031657805160ff191683800117855562000347565b8280016001018555821562000347579182015b828111156200034657825182559160200191906001019062000329565b5b5090506200035691906200035a565b5090565b5b80821115620003755760008160009055506001016200035b565b5090565b600060028204905060018216806200039257607f821691505b60208210811415620003a957620003a8620003af565b5b50919050565b7f4e487b7100000000000000000000000000000000000000000000000000000000600052602260045260246000fd5b61265180620003ee6000396000f3fe6080604052600436106101665760003560e01c806382811a2c116100d1578063a9059cbb1161008a578063c93c8f3411610064578063c93c8f34146105ad578063dbc36b35146105ea578063dd62ed3e14610627578063ea38fab01461066457610166565b8063a9059cbb14610515578063b764f3d114610552578063c1f8c6481461057057610166565b806382811a2c146103ef578063834dc984146104185780638620410b146104575780638da5cb5b146104825780639186886a146104ad57806398b96e1e146104d857610166565b80633045aaf3116101235780633045aaf3146102b557806354c5aee1146102e05780636353586b1461030d57806370a082311461034a5780637ce8bb88146103875780638052474d146103c457610166565b8063095ea7b31461016b57806318160ddd146101a8578063227a473b146101d357806323b872dd1461021057806327e235e31461024d5780632def66201461028a575b600080fd5b34801561017757600080fd5b50610192600480360381019061018d9190611cd9565b6106a1565b60405161019f9190612174565b60405180910390f35b3480156101b457600080fd5b506101bd610769565b6040516101ca9190612356565b60405180910390f35b3480156101df57600080fd5b506101fa60048036038101906101f59190611d15565b61076f565b604051610207919061218f565b60405180910390f35b34801561021c57600080fd5b5061023760048036038101906102329190611c8a565b610a79565b6040516102449190612174565b60405180910390f35b34801561025957600080fd5b50610274600480360381019061026f9190611c25565b610d5b565b6040516102819190612356565b60405180910390f35b34801561029657600080fd5b5061029f610d73565b6040516102ac919061218f565b60405180910390f35b3480156102c157600080fd5b506102ca610fac565b6040516102d7919061218f565b60405180910390f35b3480156102ec57600080fd5b506102f561103a565b604051610304939291906121b1565b60405180910390f35b34801561031957600080fd5b50610334600480360381019061032f9190611c25565b611252565b6040516103419190612356565b60405180910390f35b34801561035657600080fd5b50610371600480360381019061036c9190611c25565b61126a565b60405161037e9190612356565b60405180910390f35b34801561039357600080fd5b506103ae60048036038101906103a99190611c25565b6112b3565b6040516103bb9190612356565b60405180910390f35b3480156103d057600080fd5b506103d96112fc565b6040516103e6919061218f565b60405180910390f35b3480156103fb57600080fd5b5061041660048036038101906104119190611cd9565b61138a565b005b34801561042457600080fd5b5061043f600480360381019061043a9190611d15565b6114a6565b60405161044e939291906121b1565b60405180910390f35b34801561046357600080fd5b5061046c6115be565b6040516104799190612356565b60405180910390f35b34801561048e57600080fd5b506104976115c4565b6040516104a49190612122565b60405180910390f35b3480156104b957600080fd5b506104c26115ea565b6040516104cf9190612356565b60405180910390f35b3480156104e457600080fd5b506104ff60048036038101906104fa9190611d15565b6115f0565b60405161050c9190612174565b60405180910390f35b34801561052157600080fd5b5061053c60048036038101906105379190611cd9565b611726565b6040516105499190612174565b60405180910390f35b61055a6118c7565b604051610567919061218f565b60405180910390f35b34801561057c57600080fd5b5061059760048036038101906105929190611cd9565b611986565b6040516105a49190612174565b60405180910390f35b3480156105b957600080fd5b506105d460048036038101906105cf9190611c25565b611aec565b6040516105e19190612174565b60405180910390f35b3480156105f657600080fd5b50610611600480360381019061060c9190611c25565b611b0c565b60405161061e9190612356565b60405180910390f35b34801561063357600080fd5b5061064e60048036038101906106499190611c4e565b611b24565b60405161065b9190612356565b60405180910390f35b34801561067057600080fd5b5061068b60048036038101906106869190611d15565b611b49565b6040516106989190612122565b60405180910390f35b600081600660003373ffffffffffffffffffffffffffffffffffffffff1673ffffffffffffffffffffffffffffffffffffffff16815260200190815260200160002060008573ffffffffffffffffffffffffffffffffffffffff1673ffffffffffffffffffffffffffffffffffffffff168152602001908152602001600020819055507fa0238058eb7a8d63d887821f0641e3c4502bfeff4d777c13a709ed5b5975259d3384846040516107579392919061213d565b60405180910390a16001905092915050565b60035481565b6060670de0b6b3a7640000826107859190612414565b600560003373ffffffffffffffffffffffffffffffffffffffff1673ffffffffffffffffffffffffffffffffffffffff168152602001908152602001600020541015610806576040517f08c379a00000000000000000000000000000000000000000000000000000000081526004016107fd90612256565b60405180910390fd5b610811333084610a79565b5062093a8042610821919061238d565b601160003373ffffffffffffffffffffffffffffffffffffffff1673ffffffffffffffffffffffffffffffffffffffff16815260200190815260200160002081905550670de0b6b3a7640000826108789190612414565b600e60003373ffffffffffffffffffffffffffffffffffffffff1673ffffffffffffffffffffffffffffffffffffffff16815260200190815260200160002060008282546108c6919061238d565b925050819055506064826108da91906123e3565b601060003373ffffffffffffffffffffffffffffffffffffffff1673ffffffffffffffffffffffffffffffffffffffff1681526020019081526020016000206000828254610928919061238d565b92505081905550600f60003373ffffffffffffffffffffffffffffffffffffffff1673ffffffffffffffffffffffffffffffffffffffff16815260200190815260200160002060009054906101000a900460ff166109e457600d339080600181540180825580915050600190039060005260206000200160009091909190916101000a81548173ffffffffffffffffffffffffffffffffffffffff021916908373ffffffffffffffffffffffffffffffffffffffff1602179055505b6001600f60003373ffffffffffffffffffffffffffffffffffffffff1673ffffffffffffffffffffffffffffffffffffffff16815260200190815260200160002060006101000a81548160ff0219169083151502179055506040518060400160405280600681526020017f7374616b656400000000000000000000000000000000000000000000000000008152509050919050565b6000670de0b6b3a764000082610a8f9190612414565b610a988561126a565b1015610ad9576040517f08c379a0000000000000000000000000000000000000000000000000000000008152600401610ad0906122b6565b60405180910390fd5b600660008573ffffffffffffffffffffffffffffffffffffffff1673ffffffffffffffffffffffffffffffffffffffff16815260200190815260200160002060003373ffffffffffffffffffffffffffffffffffffffff1673ffffffffffffffffffffffffffffffffffffffff16815260200190815260200160002054821115610b98576040517f08c379a0000000000000000000000000000000000000000000000000000000008152600401610b8f90612276565b60405180910390fd5b670de0b6b3a764000082610bac9190612414565b600560008673ffffffffffffffffffffffffffffffffffffffff1673ffffffffffffffffffffffffffffffffffffffff1681526020019081526020016000206000828254610bfa919061246e565b92505081905550670de0b6b3a764000082610c159190612414565b600660008673ffffffffffffffffffffffffffffffffffffffff1673ffffffffffffffffffffffffffffffffffffffff16815260200190815260200160002060003373ffffffffffffffffffffffffffffffffffffffff1673ffffffffffffffffffffffffffffffffffffffff1681526020019081526020016000206000828254610ca0919061246e565b925050819055506012600a83610cb69190612414565b610cc09190612414565b600560008573ffffffffffffffffffffffffffffffffffffffff1673ffffffffffffffffffffffffffffffffffffffff1681526020019081526020016000206000828254610d0e919061238d565b925050819055507f9bcd4a080462731b2812ce729d5733221a967dfbb88c63391ad7091471ea8431848484604051610d489392919061213d565b60405180910390a1600190509392505050565b60056020528060005260406000206000915090505481565b60606000600e60003373ffffffffffffffffffffffffffffffffffffffff1673ffffffffffffffffffffffffffffffffffffffff1681526020019081526020016000205411610df7576040517f08c379a0000000000000000000000000000000000000000000000000000000008152600401610dee906121f6565b60405180910390fd5b60011515600f60003373ffffffffffffffffffffffffffffffffffffffff1673ffffffffffffffffffffffffffffffffffffffff16815260200190815260200160002060009054906101000a900460ff16151514610e8a576040517f08c379a0000000000000000000000000000000000000000000000000000000008152600401610e81906121f6565b60405180910390fd5b6000600f60003373ffffffffffffffffffffffffffffffffffffffff1673ffffffffffffffffffffffffffffffffffffffff16815260200190815260200160002060006101000a81548160ff021916908315150217905550610f2b33600e60003373ffffffffffffffffffffffffffffffffffffffff1673ffffffffffffffffffffffffffffffffffffffff16815260200190815260200160002054611726565b506000600e60003373ffffffffffffffffffffffffffffffffffffffff1673ffffffffffffffffffffffffffffffffffffffff168152602001908152602001600020819055506040518060400160405280600881526020017f756e7374616b6564000000000000000000000000000000000000000000000000815250905090565b60088054610fb99061251d565b80601f0160208091040260200160405190810160405280929190818152602001828054610fe59061251d565b80156110325780601f1061100757610100808354040283529160200191611032565b820191906000526020600020905b81548152906001019060200180831161101557829003601f168201915b505050505081565b606060006060601160003373ffffffffffffffffffffffffffffffffffffffff1673ffffffffffffffffffffffffffffffffffffffff168152602001908152602001600020544210156110c2576040517f08c379a00000000000000000000000000000000000000000000000000000000081526004016110b990612336565b60405180910390fd5b6000601060003373ffffffffffffffffffffffffffffffffffffffff1673ffffffffffffffffffffffffffffffffffffffff168152602001908152602001600020541015611145576040517f08c379a000000000000000000000000000000000000000000000000000000000815260040161113c906122d6565b60405180910390fd5b6000601060003373ffffffffffffffffffffffffffffffffffffffff1673ffffffffffffffffffffffffffffffffffffffff1681526020019081526020016000205490506000601060003373ffffffffffffffffffffffffffffffffffffffff1673ffffffffffffffffffffffffffffffffffffffff168152602001908152602001600020819055506111d83382611b88565b806040518060400160405280601181526020017f796f75206861766520436c61696d656420000000000000000000000000000000815250906040518060400160405280600481526020017f445553440000000000000000000000000000000000000000000000000000000081525093509350935050909192565b60106020528060005260406000206000915090505481565b6000600560008373ffffffffffffffffffffffffffffffffffffffff1673ffffffffffffffffffffffffffffffffffffffff168152602001908152602001600020549050919050565b6000600b60008373ffffffffffffffffffffffffffffffffffffffff1673ffffffffffffffffffffffffffffffffffffffff168152602001908152602001600020549050919050565b600780546113099061251d565b80601f01602080910402602001604051908101604052809291908181526020018280546113359061251d565b80156113825780601f1061135757610100808354040283529160200191611382565b820191906000526020600020905b81548152906001019060200180831161136557829003601f168201915b505050505081565b6000670de0b6b3a7640000826113a09190612414565b9050600960009054906101000a900473ffffffffffffffffffffffffffffffffffffffff1673ffffffffffffffffffffffffffffffffffffffff163373ffffffffffffffffffffffffffffffffffffffff1614611432576040517f08c379a000000000000000000000000000000000000000000000000000000000815260040161142990612216565b60405180910390fd5b80600a6000828254611444919061238d565b9250508190555080600b60008573ffffffffffffffffffffffffffffffffffffffff1673ffffffffffffffffffffffffffffffffffffffff168152602001908152602001600020600082825461149a919061238d565b92505081905550505050565b606060006060600260009054906101000a900473ffffffffffffffffffffffffffffffffffffffff1673ffffffffffffffffffffffffffffffffffffffff163373ffffffffffffffffffffffffffffffffffffffff161461153c576040517f08c379a000000000000000000000000000000000000000000000000000000000815260040161153390612296565b60405180910390fd5b83600481905550836040518060400160405280601e81526020017f42757920707269636520686173206265656e206368616e67656420746f200000815250906040518060400160405280600a81526020017f20706572204574686572000000000000000000000000000000000000000000008152509250925092509193909250565b60045481565b600c60009054906101000a900473ffffffffffffffffffffffffffffffffffffffff1681565b600a5481565b6000600260009054906101000a900473ffffffffffffffffffffffffffffffffffffffff1673ffffffffffffffffffffffffffffffffffffffff163373ffffffffffffffffffffffffffffffffffffffff1614611682576040517f08c379a000000000000000000000000000000000000000000000000000000000815260040161167990612316565b60405180910390fd5b6000670de0b6b3a7640000836116989190612414565b905080600360008282546116ac919061238d565b92505081905550670de0b6b3a7640000816116c79190612414565b600560003373ffffffffffffffffffffffffffffffffffffffff1673ffffffffffffffffffffffffffffffffffffffff1681526020019081526020016000206000828254611715919061238d565b925050819055506001915050919050565b6000670de0b6b3a76400008261173c9190612414565b600560003373ffffffffffffffffffffffffffffffffffffffff1673ffffffffffffffffffffffffffffffffffffffff1681526020019081526020016000205410156117bd576040517f08c379a00000000000000000000000000000000000000000000000000000000081526004016117b490612236565b60405180910390fd5b6000670de0b6b3a7640000836117d39190612414565b905080600560003373ffffffffffffffffffffffffffffffffffffffff1673ffffffffffffffffffffffffffffffffffffffff1681526020019081526020016000206000828254611824919061246e565b9250508190555080600560008673ffffffffffffffffffffffffffffffffffffffff1673ffffffffffffffffffffffffffffffffffffffff168152602001908152602001600020600082825461187a919061238d565b925050819055507f9bcd4a080462731b2812ce729d5733221a967dfbb88c63391ad7091471ea84313385856040516118b49392919061213d565b60405180910390a1600191505092915050565b60606000600454346118d99190612414565b905080600560003373ffffffffffffffffffffffffffffffffffffffff1673ffffffffffffffffffffffffffffffffffffffff168152602001908152602001600020600082825461192a919061238d565b925050819055508060036000828254611943919061238d565b925050819055506040518060400160405280600881526020017f526563696576656400000000000000000000000000000000000000000000000081525091505090565b6000670de0b6b3a76400008261199c9190612414565b600b60003373ffffffffffffffffffffffffffffffffffffffff1673ffffffffffffffffffffffffffffffffffffffff168152602001908152602001600020541015611a1d576040517f08c379a0000000000000000000000000000000000000000000000000000000008152600401611a14906122f6565b60405180910390fd5b6000670de0b6b3a764000083611a339190612414565b905080600b60003373ffffffffffffffffffffffffffffffffffffffff1673ffffffffffffffffffffffffffffffffffffffff1681526020019081526020016000206000828254611a84919061246e565b9250508190555080600b60008673ffffffffffffffffffffffffffffffffffffffff1673ffffffffffffffffffffffffffffffffffffffff1681526020019081526020016000206000828254611ada919061238d565b92505081905550600191505092915050565b600f6020528060005260406000206000915054906101000a900460ff1681565b600e6020528060005260406000206000915090505481565b6006602052816000526040600020602052806000526040600020600091509150505481565b600d8181548110611b5957600080fd5b906000526020600020016000915054906101000a900473ffffffffffffffffffffffffffffffffffffffff1681565b6000670de0b6b3a764000082611b9e9190612414565b905080600b60008573ffffffffffffffffffffffffffffffffffffffff1673ffffffffffffffffffffffffffffffffffffffff1681526020019081526020016000206000828254611bef919061238d565b92505081905550505050565b600081359050611c0a816125ed565b92915050565b600081359050611c1f81612604565b92915050565b600060208284031215611c3757600080fd5b6000611c4584828501611bfb565b91505092915050565b60008060408385031215611c6157600080fd5b6000611c6f85828601611bfb565b9250506020611c8085828601611bfb565b9150509250929050565b600080600060608486031215611c9f57600080fd5b6000611cad86828701611bfb565b9350506020611cbe86828701611bfb565b9250506040611ccf86828701611c10565b9150509250925092565b60008060408385031215611cec57600080fd5b6000611cfa85828601611bfb565b9250506020611d0b85828601611c10565b9150509250929050565b600060208284031215611d2757600080fd5b6000611d3584828501611c10565b91505092915050565b611d47816124a2565b82525050565b611d56816124b4565b82525050565b6000611d6782612371565b611d71818561237c565b9350611d818185602086016124ea565b611d8a816125dc565b840191505092915050565b6000611da260158361237c565b91507f796f7520646f6e7420686176652061207374616b6500000000000000000000006000830152602082019050919050565b6000611de260228361237c565b91507f4e6f205065726d697373696f6e20746f2075736520746869732066756e63746960008301527f6f6e0000000000000000000000000000000000000000000000000000000000006020830152604082019050919050565b6000611e4860148361237c565b91507f496e73756666696369656e742062616c616e63650000000000000000000000006000830152602082019050919050565b6000611e8860128361237c565b91507f496e73756666696369656e74204d5553445400000000000000000000000000006000830152602082019050919050565b6000611ec860548361237c565b91507f616d6f756e74206e6f7420616c6c6f7765642c75736520746865206170726f7660008301527f652066756e6374696f6e20746f20617070726f766520616e206164647265737360208301527f20616e64207370656e64696e6720616d6f756e740000000000000000000000006040830152606082019050919050565b6000611f5460218361237c565b91507f206f6e6c79206f776e65722063616e2075736520746869732066756e6374696f60008301527f6e000000000000000000000000000000000000000000000000000000000000006020830152604082019050919050565b6000611fba60148361237c565b91507f696e73756666696369656e742062616c616e63650000000000000000000000006000830152602082019050919050565b6000611ffa60198361237c565b91507f796f7520646f6e74206861766520616e792072657761726473000000000000006000830152602082019050919050565b600061203a60148361237c565b91507f496e73756666696369656e742042616c616e63650000000000000000000000006000830152602082019050919050565b600061207a602b8361237c565b91507f596f7520617265206e6f7420617574686f72697a656420746f2075736520746860008301527f69732066756e6374696f6e0000000000000000000000000000000000000000006020830152604082019050919050565b60006120e0601c8361237c565b91507f56657374696e6720706572696f6420686173206e6f7420656e646564000000006000830152602082019050919050565b61211c816124e0565b82525050565b60006020820190506121376000830184611d3e565b92915050565b60006060820190506121526000830186611d3e565b61215f6020830185611d3e565b61216c6040830184612113565b949350505050565b60006020820190506121896000830184611d4d565b92915050565b600060208201905081810360008301526121a98184611d5c565b905092915050565b600060608201905081810360008301526121cb8186611d5c565b90506121da6020830185612113565b81810360408301526121ec8184611d5c565b9050949350505050565b6000602082019050818103600083015261220f81611d95565b9050919050565b6000602082019050818103600083015261222f81611dd5565b9050919050565b6000602082019050818103600083015261224f81611e3b565b9050919050565b6000602082019050818103600083015261226f81611e7b565b9050919050565b6000602082019050818103600083015261228f81611ebb565b9050919050565b600060208201905081810360008301526122af81611f47565b9050919050565b600060208201905081810360008301526122cf81611fad565b9050919050565b600060208201905081810360008301526122ef81611fed565b9050919050565b6000602082019050818103600083015261230f8161202d565b9050919050565b6000602082019050818103600083015261232f8161206d565b9050919050565b6000602082019050818103600083015261234f816120d3565b9050919050565b600060208201905061236b6000830184612113565b92915050565b600081519050919050565b600082825260208201905092915050565b6000612398826124e0565b91506123a3836124e0565b9250827fffffffffffffffffffffffffffffffffffffffffffffffffffffffffffffffff038211156123d8576123d761254f565b5b828201905092915050565b60006123ee826124e0565b91506123f9836124e0565b9250826124095761240861257e565b5b828204905092915050565b600061241f826124e0565b915061242a836124e0565b9250817fffffffffffffffffffffffffffffffffffffffffffffffffffffffffffffffff04831182151516156124635761246261254f565b5b828202905092915050565b6000612479826124e0565b9150612484836124e0565b9250828210156124975761249661254f565b5b828203905092915050565b60006124ad826124c0565b9050919050565b60008115159050919050565b600073ffffffffffffffffffffffffffffffffffffffff82169050919050565b6000819050919050565b60005b838110156125085780820151818401526020810190506124ed565b83811115612517576000848401525b50505050565b6000600282049050600182168061253557607f821691505b60208210811415612549576125486125ad565b5b50919050565b7f4e487b7100000000000000000000000000000000000000000000000000000000600052601160045260246000fd5b7f4e487b7100000000000000000000000000000000000000000000000000000000600052601260045260246000fd5b7f4e487b7100000000000000000000000000000000000000000000000000000000600052602260045260246000fd5b6000601f19601f8301169050919050565b6125f6816124a2565b811461260157600080fd5b50565b61260d816124e0565b811461261857600080fd5b5056fea26469706673582212203852b1c5a27dccb75b1071f47a61f63dbd51a3cb784396756a3866e90df7045a64736f6c63430008000033",
  "linkReferences": {},
  "deployedLinkReferences": {}
}