{
  "_format": "hh-sol-artifact-1",
  "contractName": "DitoFarm",
  "sourceName": "contracts/DitoFarm.sol",
  "abi": [
    {
      "inputs": [
        {
          "internalType": "address",
          "name": "_mockaddr",
          "type": "address"
        },
        {
          "internalType": "address",
          "name": "_Dusd",
          "type": "address"
        }
      ],
      "stateMutability": "nonpayable",
      "type": "constructor"
    },
    {
      "inputs": [
        {
          "internalType": "uint256",
          "name": "_amount",
          "type": "uint256"
        }
      ],
      "name": "Stake",
      "outputs": [
        {
          "internalType": "string",
          "name": "",
          "type": "string"
        }
      ],
      "stateMutability": "nonpayable",
      "type": "function"
    },
    {
      "inputs": [],
      "name": "collectReward",
      "outputs": [
        {
          "internalType": "string",
          "name": "",
          "type": "string"
        },
        {
          "internalType": "uint256",
          "name": "",
          "type": "uint256"
        },
        {
          "internalType": "string",
          "name": "",
          "type": "string"
        }
      ],
      "stateMutability": "nonpayable",
      "type": "function"
    },
    {
      "inputs": [
        {
          "internalType": "address",
          "name": "",
          "type": "address"
        }
      ],
      "name": "hasStaked",
      "outputs": [
        {
          "internalType": "bool",
          "name": "",
          "type": "bool"
        }
      ],
      "stateMutability": "view",
      "type": "function"
    },
    {
      "inputs": [],
      "name": "owner",
      "outputs": [
        {
          "internalType": "address",
          "name": "",
          "type": "address"
        }
      ],
      "stateMutability": "view",
      "type": "function"
    },
    {
      "inputs": [
        {
          "internalType": "address",
          "name": "",
          "type": "address"
        }
      ],
      "name": "reward",
      "outputs": [
        {
          "internalType": "uint256",
          "name": "",
          "type": "uint256"
        }
      ],
      "stateMutability": "view",
      "type": "function"
    },
    {
      "inputs": [
        {
          "internalType": "address",
          "name": "",
          "type": "address"
        }
      ],
      "name": "stakedToken",
      "outputs": [
        {
          "internalType": "uint256",
          "name": "",
          "type": "uint256"
        }
      ],
      "stateMutability": "view",
      "type": "function"
    },
    {
      "inputs": [
        {
          "internalType": "uint256",
          "name": "",
          "type": "uint256"
        }
      ],
      "name": "staker",
      "outputs": [
        {
          "internalType": "address",
          "name": "",
          "type": "address"
        }
      ],
      "stateMutability": "view",
      "type": "function"
    },
    {
      "inputs": [],
      "name": "unstake",
      "outputs": [
        {
          "internalType": "string",
          "name": "",
          "type": "string"
        }
      ],
      "stateMutability": "nonpayable",
      "type": "function"
    }
  ],
  "bytecode": "0x60806040523480156200001157600080fd5b506040516200144a3803806200144a833981810160405281019062000037919062000118565b336000806101000a81548173ffffffffffffffffffffffffffffffffffffffff021916908373ffffffffffffffffffffffffffffffffffffffff16021790555081600660006101000a81548173ffffffffffffffffffffffffffffffffffffffff021916908373ffffffffffffffffffffffffffffffffffffffff16021790555080600760006101000a81548173ffffffffffffffffffffffffffffffffffffffff021916908373ffffffffffffffffffffffffffffffffffffffff1602179055505050620001a7565b60008151905062000112816200018d565b92915050565b600080604083850312156200012c57600080fd5b60006200013c8582860162000101565b92505060206200014f8582860162000101565b9150509250929050565b600062000166826200016d565b9050919050565b600073ffffffffffffffffffffffffffffffffffffffff82169050919050565b620001988162000159565b8114620001a457600080fd5b50565b61129380620001b76000396000f3fe608060405234801561001057600080fd5b50600436106100885760003560e01c80638da5cb5b1161005b5780638da5cb5b1461012b578063c93c8f3414610149578063dbc36b3514610179578063ea38fab0146101a957610088565b8063227a473b1461008d5780632def6620146100bd57806354c5aee1146100db5780636353586b146100fb575b600080fd5b6100a760048036038101906100a29190610ce1565b6101d9565b6040516100b49190610f2f565b60405180910390f35b6100c56105fa565b6040516100d29190610f2f565b60405180910390f35b6100e36108eb565b6040516100f293929190610f51565b60405180910390f35b61011560048036038101906101109190610c8f565b610b88565b6040516101229190611016565b60405180910390f35b610133610ba0565b6040516101409190610e99565b60405180910390f35b610163600480360381019061015e9190610c8f565b610bc4565b6040516101709190610f14565b60405180910390f35b610193600480360381019061018e9190610c8f565b610be4565b6040516101a09190611016565b60405180910390f35b6101c360048036038101906101be9190610ce1565b610bfc565b6040516101d09190610e99565b60405180910390f35b6060670de0b6b3a7640000826101ef91906110d4565b600660009054906101000a900473ffffffffffffffffffffffffffffffffffffffff1673ffffffffffffffffffffffffffffffffffffffff166370a08231336040518263ffffffff1660e01b815260040161024a9190610e99565b60206040518083038186803b15801561026257600080fd5b505afa158015610276573d6000803e3d6000fd5b505050506040513d601f19601f8201168201806040525081019061029a9190610d0a565b10156102db576040517f08c379a00000000000000000000000000000000000000000000000000000000081526004016102d290610fb6565b60405180910390fd5b600660009054906101000a900473ffffffffffffffffffffffffffffffffffffffff1673ffffffffffffffffffffffffffffffffffffffff166323b872dd3330856040518463ffffffff1660e01b815260040161033a93929190610eb4565b602060405180830381600087803b15801561035457600080fd5b505af1158015610368573d6000803e3d6000fd5b505050506040513d601f19601f8201168201806040525081019061038c9190610cb8565b5062093a804261039c919061104d565b600560003373ffffffffffffffffffffffffffffffffffffffff1673ffffffffffffffffffffffffffffffffffffffff16815260200190815260200160002081905550670de0b6b3a7640000826103f391906110d4565b600260003373ffffffffffffffffffffffffffffffffffffffff1673ffffffffffffffffffffffffffffffffffffffff1681526020019081526020016000206000828254610441919061104d565b92505081905550662386f26fc100008261045b91906110d4565b600460003373ffffffffffffffffffffffffffffffffffffffff1673ffffffffffffffffffffffffffffffffffffffff16815260200190815260200160002060008282546104a9919061104d565b92505081905550600360003373ffffffffffffffffffffffffffffffffffffffff1673ffffffffffffffffffffffffffffffffffffffff16815260200190815260200160002060009054906101000a900460ff16610565576001339080600181540180825580915050600190039060005260206000200160009091909190916101000a81548173ffffffffffffffffffffffffffffffffffffffff021916908373ffffffffffffffffffffffffffffffffffffffff1602179055505b6001600360003373ffffffffffffffffffffffffffffffffffffffff1673ffffffffffffffffffffffffffffffffffffffff16815260200190815260200160002060006101000a81548160ff0219169083151502179055506040518060400160405280600681526020017f7374616b656400000000000000000000000000000000000000000000000000008152509050919050565b60606000600260003373ffffffffffffffffffffffffffffffffffffffff1673ffffffffffffffffffffffffffffffffffffffff168152602001908152602001600020541161067e576040517f08c379a000000000000000000000000000000000000000000000000000000000815260040161067590610f96565b60405180910390fd5b60011515600360003373ffffffffffffffffffffffffffffffffffffffff1673ffffffffffffffffffffffffffffffffffffffff16815260200190815260200160002060009054906101000a900460ff16151514610711576040517f08c379a000000000000000000000000000000000000000000000000000000000815260040161070890610f96565b60405180910390fd5b6000600360003373ffffffffffffffffffffffffffffffffffffffff1673ffffffffffffffffffffffffffffffffffffffff16815260200190815260200160002060006101000a81548160ff021916908315150217905550600660009054906101000a900473ffffffffffffffffffffffffffffffffffffffff1673ffffffffffffffffffffffffffffffffffffffff1663a9059cbb33670de0b6b3a7640000600260003373ffffffffffffffffffffffffffffffffffffffff1673ffffffffffffffffffffffffffffffffffffffff168152602001908152602001600020546107fb91906110a3565b6040518363ffffffff1660e01b8152600401610818929190610eeb565b602060405180830381600087803b15801561083257600080fd5b505af1158015610846573d6000803e3d6000fd5b505050506040513d601f19601f8201168201806040525081019061086a9190610cb8565b506000600260003373ffffffffffffffffffffffffffffffffffffffff1673ffffffffffffffffffffffffffffffffffffffff168152602001908152602001600020819055506040518060400160405280600881526020017f756e7374616b6564000000000000000000000000000000000000000000000000815250905090565b606060006060600560003373ffffffffffffffffffffffffffffffffffffffff1673ffffffffffffffffffffffffffffffffffffffff16815260200190815260200160002054421015610973576040517f08c379a000000000000000000000000000000000000000000000000000000000815260040161096a90610ff6565b60405180910390fd5b6000600460003373ffffffffffffffffffffffffffffffffffffffff1673ffffffffffffffffffffffffffffffffffffffff1681526020019081526020016000205410156109f6576040517f08c379a00000000000000000000000000000000000000000000000000000000081526004016109ed90610fd6565b60405180910390fd5b6000600460003373ffffffffffffffffffffffffffffffffffffffff1673ffffffffffffffffffffffffffffffffffffffff1681526020019081526020016000205490506000600460003373ffffffffffffffffffffffffffffffffffffffff1673ffffffffffffffffffffffffffffffffffffffff16815260200190815260200160002081905550600760009054906101000a900473ffffffffffffffffffffffffffffffffffffffff1673ffffffffffffffffffffffffffffffffffffffff166321670f2233836040518363ffffffff1660e01b8152600401610adc929190610eeb565b600060405180830381600087803b158015610af657600080fd5b505af1158015610b0a573d6000803e3d6000fd5b50505050806040518060400160405280601181526020017f796f75206861766520436c61696d656420000000000000000000000000000000815250906040518060400160405280600481526020017f445553440000000000000000000000000000000000000000000000000000000081525093509350935050909192565b60046020528060005260406000206000915090505481565b60008054906101000a900473ffffffffffffffffffffffffffffffffffffffff1681565b60036020528060005260406000206000915054906101000a900460ff1681565b60026020528060005260406000206000915090505481565b60018181548110610c0c57600080fd5b906000526020600020016000915054906101000a900473ffffffffffffffffffffffffffffffffffffffff1681565b600081359050610c4a81611218565b92915050565b600081519050610c5f8161122f565b92915050565b600081359050610c7481611246565b92915050565b600081519050610c8981611246565b92915050565b600060208284031215610ca157600080fd5b6000610caf84828501610c3b565b91505092915050565b600060208284031215610cca57600080fd5b6000610cd884828501610c50565b91505092915050565b600060208284031215610cf357600080fd5b6000610d0184828501610c65565b91505092915050565b600060208284031215610d1c57600080fd5b6000610d2a84828501610c7a565b91505092915050565b610d3c8161112e565b82525050565b610d4b81611140565b82525050565b6000610d5c82611031565b610d66818561103c565b9350610d76818560208601611176565b610d7f81611207565b840191505092915050565b6000610d9760158361103c565b91507f796f7520646f6e7420686176652061207374616b6500000000000000000000006000830152602082019050919050565b6000610dd760128361103c565b91507f496e73756666696369656e74204d5553445400000000000000000000000000006000830152602082019050919050565b6000610e1760198361103c565b91507f796f7520646f6e74206861766520616e792072657761726473000000000000006000830152602082019050919050565b6000610e57601c8361103c565b91507f56657374696e6720706572696f6420686173206e6f7420656e646564000000006000830152602082019050919050565b610e938161116c565b82525050565b6000602082019050610eae6000830184610d33565b92915050565b6000606082019050610ec96000830186610d33565b610ed66020830185610d33565b610ee36040830184610e8a565b949350505050565b6000604082019050610f006000830185610d33565b610f0d6020830184610e8a565b9392505050565b6000602082019050610f296000830184610d42565b92915050565b60006020820190508181036000830152610f498184610d51565b905092915050565b60006060820190508181036000830152610f6b8186610d51565b9050610f7a6020830185610e8a565b8181036040830152610f8c8184610d51565b9050949350505050565b60006020820190508181036000830152610faf81610d8a565b9050919050565b60006020820190508181036000830152610fcf81610dca565b9050919050565b60006020820190508181036000830152610fef81610e0a565b9050919050565b6000602082019050818103600083015261100f81610e4a565b9050919050565b600060208201905061102b6000830184610e8a565b92915050565b600081519050919050565b600082825260208201905092915050565b60006110588261116c565b91506110638361116c565b9250827fffffffffffffffffffffffffffffffffffffffffffffffffffffffffffffffff03821115611098576110976111a9565b5b828201905092915050565b60006110ae8261116c565b91506110b98361116c565b9250826110c9576110c86111d8565b5b828204905092915050565b60006110df8261116c565b91506110ea8361116c565b9250817fffffffffffffffffffffffffffffffffffffffffffffffffffffffffffffffff0483118215151615611123576111226111a9565b5b828202905092915050565b60006111398261114c565b9050919050565b60008115159050919050565b600073ffffffffffffffffffffffffffffffffffffffff82169050919050565b6000819050919050565b60005b83811015611194578082015181840152602081019050611179565b838111156111a3576000848401525b50505050565b7f4e487b7100000000000000000000000000000000000000000000000000000000600052601160045260246000fd5b7f4e487b7100000000000000000000000000000000000000000000000000000000600052601260045260246000fd5b6000601f19601f8301169050919050565b6112218161112e565b811461122c57600080fd5b50565b61123881611140565b811461124357600080fd5b50565b61124f8161116c565b811461125a57600080fd5b5056fea2646970667358221220c4a45ae199b193004a0ae741d47938e15b79c081713d54bcd7b60c6607ab31d964736f6c63430008000033",
  "linkReferences": {},
  "deployedLinkReferences": {}
}